{
  "contractName": "Coin",
  "abi": [
    {
      "inputs": [],
      "payable": false,
      "stateMutability": "nonpayable",
      "type": "constructor"
    },
    {
      "anonymous": false,
      "inputs": [
        {
          "indexed": false,
          "internalType": "bool",
          "name": "trueOrFalse",
          "type": "bool"
        },
        {
          "indexed": false,
          "internalType": "string",
          "name": "result",
          "type": "string"
        }
      ],
      "name": "betResult",
      "type": "event"
    },
    {
      "constant": true,
      "inputs": [],
      "name": "ownerBalance",
      "outputs": [
        {
          "internalType": "uint256",
          "name": "",
          "type": "uint256"
        }
      ],
      "payable": false,
      "stateMutability": "view",
      "type": "function"
    },
    {
      "constant": false,
      "inputs": [],
      "name": "setOwnerBalance",
      "outputs": [],
      "payable": true,
      "stateMutability": "payable",
      "type": "function"
    },
    {
      "constant": false,
      "inputs": [],
      "name": "startBet",
      "outputs": [],
      "payable": true,
      "stateMutability": "payable",
      "type": "function"
    }
  ],
  "bytecode": "0x608060405234801561001057600080fd5b5033600260006101000a81548173ffffffffffffffffffffffffffffffffffffffff021916908373ffffffffffffffffffffffffffffffffffffffff160217905550610468806100616000396000f3fe6080604052600436106100345760003560e01c8063bedcf00314610039578063efafd28f14610064578063fa6776db1461006e575b600080fd5b34801561004557600080fd5b5061004e610078565b6040518082815260200191505060405180910390f35b61006c61007e565b005b610076610152565b005b60005481565b600260009054906101000a900473ffffffffffffffffffffffffffffffffffffffff1673ffffffffffffffffffffffffffffffffffffffff163373ffffffffffffffffffffffffffffffffffffffff1614610141576040517f08c379a00000000000000000000000000000000000000000000000000000000081526004018080602001828103825260158152602001807f596f7520617265206e6f7420746865206f776e6572000000000000000000000081525060200191505060405180910390fd5b346000808282540192505081905550565b670de0b6b3a7640000803410156101b4576040517f08c379a000000000000000000000000000000000000000000000000000000000815260040180806020018281038252602581526020018061040f6025913960400191505060405180910390fd5b6729a2241af62c0000341115610215576040517f08c379a00000000000000000000000000000000000000000000000000000000081526004018080602001828103825260258152602001806103ea6025913960400191505060405180910390fd5b3460016000828254019250508190555061022d610231565b5050565b6000600161023d61025e565b14156102515761024b610270565b5061025b565b610259610355565b505b90565b60006002428161026a57fe5b06905090565b60008060026001540290506001546000540360008190555060006001819055503373ffffffffffffffffffffffffffffffffffffffff166108fc829081150290604051600060405180830381858888f193505050501580156102d6573d6000803e3d6000fd5b507fd174b8ad3bed71b35de6016396bb6f58eb645015aa1aa574b9bff3cadcf0440e6001604051808215151515815260200180602001828103825260088152602001807f596f752077696e210000000000000000000000000000000000000000000000008152506020019250505060405180910390a160015491505090565b60006001546000540160008190555060006001819055507fd174b8ad3bed71b35de6016396bb6f58eb645015aa1aa574b9bff3cadcf0440e6000604051808215151515815260200180602001828103825260168152602001807f596f75206c6f73652e2e2e2054727920616761696e21000000000000000000008152506020019250505060405180910390a160005490509056fe536f7272792c2062757420746865206d6178696d756d206265742069732033206574686572536f7272792c2062757420746865206d696e696d756d206265742069732031206574686572a265627a7a72315820e07011828d9822993807eb5027e334f7413d3b6f73147f8f34e3a133f14ca64c64736f6c63430005100032",
  "source": "// SPDX-License-Identifier: MIT\npragma solidity >=0.4.21 <0.7.0;\n\ncontract Coin {\n    \n    uint public ownerBalance;\n    uint playerBalance;\n    \n    address payable owner;\n\n    modifier minimumBet(uint deposit) {\n        require(msg.value >= deposit, \"Sorry, but the minimum bet is 1 ether\");\n        _;\n    }\n    \n    modifier isOwner() {\n        require(msg.sender == owner, \"You are not the owner\");\n        _;\n    }\n    \n    constructor() public {\n        owner = msg.sender;\n    }\n    \n    event betResult(bool trueOrFalse, string result);\n    \n    function setOwnerBalance() public payable isOwner {\n        ownerBalance += msg.value;\n    }\n    \n    function startBet() public payable minimumBet(1 ether) {\n        require(msg.value <= 3 ether, \"Sorry, but the maximum bet is 3 ether\");\n        playerBalance += msg.value;\n        payWinner();\n    }\n    \n    function random() private view returns(uint) {\n        return now % 2;\n    }\n    \n    function playerWins() private returns(uint) {\n        uint pb = playerBalance * 2;\n        ownerBalance = ownerBalance - playerBalance;\n        playerBalance = 0;\n        msg.sender.transfer(pb);\n        emit betResult(true, \"You win!\");\n\n        return playerBalance;\n    }\n    \n    function ownerWins() private returns(uint) {\n        ownerBalance = ownerBalance + playerBalance;\n        playerBalance = 0;\n        emit betResult(false, \"You lose... Try again!\");\n\n        return ownerBalance;\n    }\n    \n    function payWinner() private returns(uint) {\n        if(random() == 1) {\n            playerWins();\n        } else {\n            ownerWins();\n        }\n    }\n}\n",
  "sourcePath": "/Users/john/Desktop/project1/contracts/Coin.sol",
  "compiler": {
    "name": "solc",
    "version": "0.5.16+commit.9c3226ce.Emscripten.clang"
  },
  "schemaVersion": "3.2.3",
  "updatedAt": "2020-08-16T11:23:19.073Z",
  "networkType": "ethereum",
  "devdoc": {
    "methods": {}
  },
  "userdoc": {
    "methods": {}
  }
}